:020000040000FA
:020000000528D1
:080008001A28831606309F0040
:1000100005108510051106148801011783128B172E
:100020000B1685018801A001A1013230A500322004
:100030004A201728061C20280515252032201A28BA
:100040008B1005113230A5000900A50B08003230D5
:10005000A500A00B08000930A000A10B08000A3081
:10006000A10008000514851020083F2088005F20AB
:100070000510851421083F2088005F2008008207B2
:100080003F3406345B344F3466346D347D3407348A
:100090007F346F34A20A32302202031D0800A2010D
:1000A000A00A0A302002031D0800A001A10A0A309C
:1000B0002102031D0800A001A101A20108002030B7
:1000C000A4003230A300A30B6328A40B612808000E
:02400E00313F40
:00000001FF
